{
  "contractName": "SupplyChain",
  "abi": [
    {
      "constant": false,
      "inputs": [
        {
          "name": "account",
          "type": "address"
        }
      ],
      "name": "addConsumer",
      "outputs": [],
      "payable": false,
      "stateMutability": "nonpayable",
      "type": "function"
    },
    {
      "constant": true,
      "inputs": [
        {
          "name": "account",
          "type": "address"
        }
      ],
      "name": "isRetailer",
      "outputs": [
        {
          "name": "",
          "type": "bool"
        }
      ],
      "payable": false,
      "stateMutability": "view",
      "type": "function"
    },
    {
      "constant": false,
      "inputs": [],
      "name": "renounceConsumer",
      "outputs": [],
      "payable": false,
      "stateMutability": "nonpayable",
      "type": "function"
    },
    {
      "constant": false,
      "inputs": [],
      "name": "renounceDistributor",
      "outputs": [],
      "payable": false,
      "stateMutability": "nonpayable",
      "type": "function"
    },
    {
      "constant": false,
      "inputs": [],
      "name": "renounceOwnership",
      "outputs": [],
      "payable": false,
      "stateMutability": "nonpayable",
      "type": "function"
    },
    {
      "constant": false,
      "inputs": [
        {
          "name": "account",
          "type": "address"
        }
      ],
      "name": "addDistributor",
      "outputs": [],
      "payable": false,
      "stateMutability": "nonpayable",
      "type": "function"
    },
    {
      "constant": false,
      "inputs": [
        {
          "name": "account",
          "type": "address"
        }
      ],
      "name": "addFarmer",
      "outputs": [],
      "payable": false,
      "stateMutability": "nonpayable",
      "type": "function"
    },
    {
      "constant": false,
      "inputs": [],
      "name": "renounceFarmer",
      "outputs": [],
      "payable": false,
      "stateMutability": "nonpayable",
      "type": "function"
    },
    {
      "constant": true,
      "inputs": [
        {
          "name": "account",
          "type": "address"
        }
      ],
      "name": "isConsumer",
      "outputs": [
        {
          "name": "",
          "type": "bool"
        }
      ],
      "payable": false,
      "stateMutability": "view",
      "type": "function"
    },
    {
      "constant": false,
      "inputs": [
        {
          "name": "account",
          "type": "address"
        }
      ],
      "name": "addRetailer",
      "outputs": [],
      "payable": false,
      "stateMutability": "nonpayable",
      "type": "function"
    },
    {
      "constant": true,
      "inputs": [
        {
          "name": "account",
          "type": "address"
        }
      ],
      "name": "isDistributor",
      "outputs": [
        {
          "name": "",
          "type": "bool"
        }
      ],
      "payable": false,
      "stateMutability": "view",
      "type": "function"
    },
    {
      "constant": true,
      "inputs": [],
      "name": "isOwner",
      "outputs": [
        {
          "name": "",
          "type": "bool"
        }
      ],
      "payable": false,
      "stateMutability": "view",
      "type": "function"
    },
    {
      "constant": true,
      "inputs": [],
      "name": "owner_get",
      "outputs": [
        {
          "name": "",
          "type": "address"
        }
      ],
      "payable": false,
      "stateMutability": "view",
      "type": "function"
    },
    {
      "constant": true,
      "inputs": [
        {
          "name": "account",
          "type": "address"
        }
      ],
      "name": "isFarmer",
      "outputs": [
        {
          "name": "",
          "type": "bool"
        }
      ],
      "payable": false,
      "stateMutability": "view",
      "type": "function"
    },
    {
      "constant": false,
      "inputs": [],
      "name": "renounceRetailer",
      "outputs": [],
      "payable": false,
      "stateMutability": "nonpayable",
      "type": "function"
    },
    {
      "constant": false,
      "inputs": [
        {
          "name": "newOwner",
          "type": "address"
        }
      ],
      "name": "transferOwnership",
      "outputs": [],
      "payable": false,
      "stateMutability": "nonpayable",
      "type": "function"
    },
    {
      "inputs": [],
      "payable": true,
      "stateMutability": "payable",
      "type": "constructor"
    },
    {
      "anonymous": false,
      "inputs": [
        {
          "indexed": false,
          "name": "upc",
          "type": "uint256"
        }
      ],
      "name": "Harvested",
      "type": "event"
    },
    {
      "anonymous": false,
      "inputs": [
        {
          "indexed": false,
          "name": "upc",
          "type": "uint256"
        }
      ],
      "name": "Processed",
      "type": "event"
    },
    {
      "anonymous": false,
      "inputs": [
        {
          "indexed": false,
          "name": "upc",
          "type": "uint256"
        }
      ],
      "name": "Packed",
      "type": "event"
    },
    {
      "anonymous": false,
      "inputs": [
        {
          "indexed": false,
          "name": "upc",
          "type": "uint256"
        }
      ],
      "name": "ForSale",
      "type": "event"
    },
    {
      "anonymous": false,
      "inputs": [
        {
          "indexed": false,
          "name": "upc",
          "type": "uint256"
        }
      ],
      "name": "Sold",
      "type": "event"
    },
    {
      "anonymous": false,
      "inputs": [
        {
          "indexed": false,
          "name": "upc",
          "type": "uint256"
        }
      ],
      "name": "Shipped",
      "type": "event"
    },
    {
      "anonymous": false,
      "inputs": [
        {
          "indexed": false,
          "name": "upc",
          "type": "uint256"
        }
      ],
      "name": "Received",
      "type": "event"
    },
    {
      "anonymous": false,
      "inputs": [
        {
          "indexed": false,
          "name": "upc",
          "type": "uint256"
        }
      ],
      "name": "Purchased",
      "type": "event"
    },
    {
      "anonymous": false,
      "inputs": [
        {
          "indexed": false,
          "name": "account",
          "type": "address"
        }
      ],
      "name": "ConsumerAdded",
      "type": "event"
    },
    {
      "anonymous": false,
      "inputs": [
        {
          "indexed": false,
          "name": "account",
          "type": "address"
        }
      ],
      "name": "ConsumerRemoved",
      "type": "event"
    },
    {
      "anonymous": false,
      "inputs": [
        {
          "indexed": true,
          "name": "account",
          "type": "address"
        }
      ],
      "name": "RetailerAdded",
      "type": "event"
    },
    {
      "anonymous": false,
      "inputs": [
        {
          "indexed": true,
          "name": "account",
          "type": "address"
        }
      ],
      "name": "RetailerRemoved",
      "type": "event"
    },
    {
      "anonymous": false,
      "inputs": [
        {
          "indexed": true,
          "name": "account",
          "type": "address"
        }
      ],
      "name": "DistributorAdded",
      "type": "event"
    },
    {
      "anonymous": false,
      "inputs": [
        {
          "indexed": true,
          "name": "account",
          "type": "address"
        }
      ],
      "name": "DistributorRemoved",
      "type": "event"
    },
    {
      "anonymous": false,
      "inputs": [
        {
          "indexed": true,
          "name": "account",
          "type": "address"
        }
      ],
      "name": "FarmerAdded",
      "type": "event"
    },
    {
      "anonymous": false,
      "inputs": [
        {
          "indexed": true,
          "name": "account",
          "type": "address"
        }
      ],
      "name": "FarmerRemoved",
      "type": "event"
    },
    {
      "anonymous": false,
      "inputs": [
        {
          "indexed": true,
          "name": "oldOwner",
          "type": "address"
        },
        {
          "indexed": true,
          "name": "newOwner",
          "type": "address"
        }
      ],
      "name": "TransferOwnership",
      "type": "event"
    },
    {
      "constant": false,
      "inputs": [],
      "name": "kill",
      "outputs": [],
      "payable": false,
      "stateMutability": "nonpayable",
      "type": "function"
    },
    {
      "constant": false,
      "inputs": [
        {
          "name": "_upc",
          "type": "uint256"
        },
        {
          "name": "_originFarmerID",
          "type": "address"
        },
        {
          "name": "_originFarmName",
          "type": "string"
        },
        {
          "name": "_originFarmInformation",
          "type": "string"
        },
        {
          "name": "_originFarmLatitude",
          "type": "string"
        },
        {
          "name": "_originFarmLongitude",
          "type": "string"
        },
        {
          "name": "_productNotes",
          "type": "string"
        }
      ],
      "name": "harvestItem",
      "outputs": [],
      "payable": false,
      "stateMutability": "nonpayable",
      "type": "function"
    },
    {
      "constant": false,
      "inputs": [
        {
          "name": "_upc",
          "type": "uint256"
        }
      ],
      "name": "processItem",
      "outputs": [],
      "payable": false,
      "stateMutability": "nonpayable",
      "type": "function"
    },
    {
      "constant": false,
      "inputs": [
        {
          "name": "_upc",
          "type": "uint256"
        }
      ],
      "name": "packItem",
      "outputs": [],
      "payable": false,
      "stateMutability": "nonpayable",
      "type": "function"
    },
    {
      "constant": false,
      "inputs": [
        {
          "name": "_upc",
          "type": "uint256"
        },
        {
          "name": "_price",
          "type": "uint256"
        }
      ],
      "name": "sellItem",
      "outputs": [],
      "payable": false,
      "stateMutability": "nonpayable",
      "type": "function"
    },
    {
      "constant": false,
      "inputs": [
        {
          "name": "_upc",
          "type": "uint256"
        }
      ],
      "name": "buyItem",
      "outputs": [],
      "payable": true,
      "stateMutability": "payable",
      "type": "function"
    },
    {
      "constant": false,
      "inputs": [
        {
          "name": "_upc",
          "type": "uint256"
        }
      ],
      "name": "shipItem",
      "outputs": [],
      "payable": false,
      "stateMutability": "nonpayable",
      "type": "function"
    },
    {
      "constant": false,
      "inputs": [
        {
          "name": "_upc",
          "type": "uint256"
        }
      ],
      "name": "receiveItem",
      "outputs": [],
      "payable": false,
      "stateMutability": "nonpayable",
      "type": "function"
    },
    {
      "constant": false,
      "inputs": [
        {
          "name": "_upc",
          "type": "uint256"
        }
      ],
      "name": "purchaseItem",
      "outputs": [],
      "payable": false,
      "stateMutability": "nonpayable",
      "type": "function"
    },
    {
      "constant": true,
      "inputs": [
        {
          "name": "_upc",
          "type": "uint256"
        }
      ],
      "name": "fetchItemBufferOne",
      "outputs": [
        {
          "name": "itemSKU",
          "type": "uint256"
        },
        {
          "name": "itemUPC",
          "type": "uint256"
        },
        {
          "name": "ownerID",
          "type": "address"
        },
        {
          "name": "originFarmerID",
          "type": "address"
        },
        {
          "name": "originFarmName",
          "type": "string"
        },
        {
          "name": "originFarmInformation",
          "type": "string"
        },
        {
          "name": "originFarmLatitude",
          "type": "string"
        },
        {
          "name": "originFarmLongitude",
          "type": "string"
        }
      ],
      "payable": false,
      "stateMutability": "view",
      "type": "function"
    },
    {
      "constant": true,
      "inputs": [
        {
          "name": "_upc",
          "type": "uint256"
        }
      ],
      "name": "fetchItemBufferTwo",
      "outputs": [
        {
          "name": "itemSKU",
          "type": "uint256"
        },
        {
          "name": "itemUPC",
          "type": "uint256"
        },
        {
          "name": "productID",
          "type": "uint256"
        },
        {
          "name": "productNotes",
          "type": "string"
        },
        {
          "name": "productPrice",
          "type": "uint256"
        },
        {
          "name": "itemState",
          "type": "uint256"
        },
        {
          "name": "distributorID",
          "type": "address"
        },
        {
          "name": "retailerID",
          "type": "address"
        },
        {
          "name": "consumerID",
          "type": "address"
        }
      ],
      "payable": false,
      "stateMutability": "view",
      "type": "function"
    }
  ],
  "bytecode": "0x6080604052336000806101000a81548173ffffffffffffffffffffffffffffffffffffffff021916908373ffffffffffffffffffffffffffffffffffffffff1602179055506000809054906101000a900473ffffffffffffffffffffffffffffffffffffffff1673ffffffffffffffffffffffffffffffffffffffff16600073ffffffffffffffffffffffffffffffffffffffff167f5c486528ec3e3f0ea91181cff8116f02bfa350e03b8b6f12e00765adbb5af85c60405160405180910390a3620000da336200017f640100000000026401000000009004565b620000f433620001e9640100000000026401000000009004565b6200010e3362000253640100000000026401000000009004565b6200012833620002bd640100000000026401000000009004565b33600560006101000a81548173ffffffffffffffffffffffffffffffffffffffff021916908373ffffffffffffffffffffffffffffffffffffffff16021790555060016007819055506001600681905550620005da565b620001a3816001620003476401000000000262002ea4179091906401000000009004565b8073ffffffffffffffffffffffffffffffffffffffff167f2e0ded4123377a3c2bc9a26f1717655a129e2f20752924d42e730ec89c83dbd060405160405180910390a250565b6200020d816002620003476401000000000262002ea4179091906401000000009004565b8073ffffffffffffffffffffffffffffffffffffffff167fddbf200aa634dc3fb81cfd68583dd1040d1c751d335e1d86b631bde3e977fea860405160405180910390a250565b62000277816003620003476401000000000262002ea4179091906401000000009004565b8073ffffffffffffffffffffffffffffffffffffffff167f71ae26cad02663e3d92efd6ec56031a80d74a20c0ab4183faa8bf262261c9baa60405160405180910390a250565b620002e1816004620003476401000000000262002ea4179091906401000000009004565b7f28b26e7a3d20aedbc5f8f2ebf7da671c0491723a2b78f47a097b0e46dee0714281604051808273ffffffffffffffffffffffffffffffffffffffff1673ffffffffffffffffffffffffffffffffffffffff16815260200191505060405180910390a150565b600073ffffffffffffffffffffffffffffffffffffffff168173ffffffffffffffffffffffffffffffffffffffff1614151515620003ed576040517f08c379a00000000000000000000000000000000000000000000000000000000081526004018080602001828103825260158152602001807f616464726573732030206e6f7420616c6c6f776564000000000000000000000081525060200191505060405180910390fd5b620004088282620004dc640100000000026401000000009004565b1515156200047e576040517f08c379a00000000000000000000000000000000000000000000000000000000081526004018080602001828103825260148152602001807f6d757374206e6f742068617665206120726f6c6500000000000000000000000081525060200191505060405180910390fd5b60018260000160008373ffffffffffffffffffffffffffffffffffffffff1673ffffffffffffffffffffffffffffffffffffffff16815260200190815260200160002060006101000a81548160ff0219169083151502179055505050565b60008073ffffffffffffffffffffffffffffffffffffffff168273ffffffffffffffffffffffffffffffffffffffff161415151562000583576040517f08c379a00000000000000000000000000000000000000000000000000000000081526004018080602001828103825260158152602001807f616464726573732030206e6f7420616c6c6f776564000000000000000000000081525060200191505060405180910390fd5b8260000160008373ffffffffffffffffffffffffffffffffffffffff1673ffffffffffffffffffffffffffffffffffffffff16815260200190815260200160002060009054906101000a900460ff16905092915050565b61336880620005ea6000396000f30060806040526004361061015f576000357c0100000000000000000000000000000000000000000000000000000000900463ffffffff168063112940f9146101645780632d923561146101a757806341c0e1b5146101de57806349dae766146101f55780635da09b881461022257806361e6982d1461027d578063644241db1461029457806366225ff9146102ab578063715018a61461040d5780637250e2241461042457806377c459131461046757806380c3f96d146106c557806380fc0ce414610708578063834ff7391461071f5780638ec4f5051461077a5780638f0c86fa146107bd5780638f32d59b14610818578063a26be99914610847578063aedfd78114610874578063b9429069146108cb578063bdd8a6a814610926578063d38ea5bf14610ad1578063db0e6a2f14610afe578063e7fb74c714610b15578063f2fde38b14610b35578063f30fc48014610b78578063f61c899a14610ba5575b600080fd5b34801561017057600080fd5b506101a5600480360381019080803573ffffffffffffffffffffffffffffffffffffffff169060200190929190505050610bd2565b005b3480156101b357600080fd5b506101dc6004803603810190808035906020019092919080359060200190929190505050610c5b565b005b3480156101ea57600080fd5b506101f3610e19565b005b34801561020157600080fd5b5061022060048036038101908080359060200190929190505050610eac565b005b34801561022e57600080fd5b50610263600480360381019080803573ffffffffffffffffffffffffffffffffffffffff16906020019092919050505061104e565b604051808215151515815260200191505060405180910390f35b34801561028957600080fd5b5061029261106b565b005b3480156102a057600080fd5b506102a9611076565b005b3480156102b757600080fd5b506102d660048036038101908080359060200190929190505050611081565b604051808a8152602001898152602001888152602001806020018781526020018681526020018573ffffffffffffffffffffffffffffffffffffffff1673ffffffffffffffffffffffffffffffffffffffff1681526020018473ffffffffffffffffffffffffffffffffffffffff1673ffffffffffffffffffffffffffffffffffffffff1681526020018373ffffffffffffffffffffffffffffffffffffffff1673ffffffffffffffffffffffffffffffffffffffff168152602001828103825288818151815260200191508051906020019080838360005b838110156103ca5780820151818401526020810190506103af565b50505050905090810190601f1680156103f75780820380516001836020036101000a031916815260200191505b509a505050505050505050505060405180910390f35b34801561041957600080fd5b506104226112a9565b005b34801561043057600080fd5b50610465600480360381019080803573ffffffffffffffffffffffffffffffffffffffff16906020019092919050505061142d565b005b34801561047357600080fd5b50610492600480360381019080803590602001909291905050506114b6565b604051808981526020018881526020018773ffffffffffffffffffffffffffffffffffffffff1673ffffffffffffffffffffffffffffffffffffffff1681526020018673ffffffffffffffffffffffffffffffffffffffff1673ffffffffffffffffffffffffffffffffffffffff16815260200180602001806020018060200180602001858103855289818151815260200191508051906020019080838360005b8381101561054e578082015181840152602081019050610533565b50505050905090810190601f16801561057b5780820380516001836020036101000a031916815260200191505b50858103845288818151815260200191508051906020019080838360005b838110156105b4578082015181840152602081019050610599565b50505050905090810190601f1680156105e15780820380516001836020036101000a031916815260200191505b50858103835287818151815260200191508051906020019080838360005b8381101561061a5780820151818401526020810190506105ff565b50505050905090810190601f1680156106475780820380516001836020036101000a031916815260200191505b50858103825286818151815260200191508051906020019080838360005b83811015610680578082015181840152602081019050610665565b50505050905090810190601f1680156106ad5780820380516001836020036101000a031916815260200191505b509c5050505050505050505050505060405180910390f35b3480156106d157600080fd5b50610706600480360381019080803573ffffffffffffffffffffffffffffffffffffffff16906020019092919050505061184d565b005b34801561071457600080fd5b5061071d6118d6565b005b34801561072b57600080fd5b50610760600480360381019080803573ffffffffffffffffffffffffffffffffffffffff1690602001909291905050506118e1565b604051808215151515815260200191505060405180910390f35b34801561078657600080fd5b506107bb600480360381019080803573ffffffffffffffffffffffffffffffffffffffff1690602001909291905050506118fe565b005b3480156107c957600080fd5b506107fe600480360381019080803573ffffffffffffffffffffffffffffffffffffffff169060200190929190505050611987565b604051808215151515815260200191505060405180910390f35b34801561082457600080fd5b5061082d6119a4565b604051808215151515815260200191505060405180910390f35b34801561085357600080fd5b50610872600480360381019080803590602001909291905050506119fb565b005b34801561088057600080fd5b50610889611bca565b604051808273ffffffffffffffffffffffffffffffffffffffff1673ffffffffffffffffffffffffffffffffffffffff16815260200191505060405180910390f35b3480156108d757600080fd5b5061090c600480360381019080803573ffffffffffffffffffffffffffffffffffffffff169060200190929190505050611bf3565b604051808215151515815260200191505060405180910390f35b34801561093257600080fd5b50610acf60048036038101908080359060200190929190803573ffffffffffffffffffffffffffffffffffffffff169060200190929190803590602001908201803590602001908080601f0160208091040260200160405190810160405280939291908181526020018383808284378201915050505050509192919290803590602001908201803590602001908080601f0160208091040260200160405190810160405280939291908181526020018383808284378201915050505050509192919290803590602001908201803590602001908080601f0160208091040260200160405190810160405280939291908181526020018383808284378201915050505050509192919290803590602001908201803590602001908080601f0160208091040260200160405190810160405280939291908181526020018383808284378201915050505050509192919290803590602001908201803590602001908080601f0160208091040260200160405190810160405280939291908181526020018383808284378201915050505050509192919290505050611c10565b005b348015610add57600080fd5b50610afc60048036038101908080359060200190929190505050611fb1565b005b348015610b0a57600080fd5b50610b13612180565b005b610b336004803603810190808035906020019092919050505061218b565b005b348015610b4157600080fd5b50610b76600480360381019080803573ffffffffffffffffffffffffffffffffffffffff16906020019092919050505061251f565b005b348015610b8457600080fd5b50610ba3600480360381019080803590602001909291905050506125f0565b005b348015610bb157600080fd5b50610bd060048036038101908080359060200190929190505050612792565b005b610bdb336118e1565b1515610c4f576040517f08c379a00000000000000000000000000000000000000000000000000000000081526004018080602001828103825260148152602001807f68617320746f206265206120636f6e73756d657200000000000000000000000081525060200191505060405180910390fd5b610c5881612934565b50565b8160026007811115610c6957fe5b60086000838152602001908152602001600020600b0160009054906101000a900460ff166007811115610c9857fe5b141515610d0d576040517f08c379a00000000000000000000000000000000000000000000000000000000081526004018080602001828103825260178152602001807f6d75737420626520696e207061636b656420737461746500000000000000000081525060200191505060405180910390fd5b610d1633611bf3565b1515610d8a576040517f08c379a00000000000000000000000000000000000000000000000000000000081526004018080602001828103825260128152602001807f68617320746f2062652061206661726d6572000000000000000000000000000081525060200191505060405180910390fd5b600360086000858152602001908152602001600020600b0160006101000a81548160ff02191690836007811115610dbd57fe5b02179055508160086000858152602001908152602001600020600a01819055507fa96ae0fc3224ebd79eebfe54bd130cc9cb94416cddd1f2386115e00b72532468836040518082815260200191505060405180910390a1505050565b600560009054906101000a900473ffffffffffffffffffffffffffffffffffffffff1673ffffffffffffffffffffffffffffffffffffffff163373ffffffffffffffffffffffffffffffffffffffff161415610eaa57600560009054906101000a900473ffffffffffffffffffffffffffffffffffffffff1673ffffffffffffffffffffffffffffffffffffffff16ff5b565b8060006007811115610eba57fe5b60086000838152602001908152602001600020600b0160009054906101000a900460ff166007811115610ee957fe5b141515610f5e576040517f08c379a000000000000000000000000000000000000000000000000000000000815260040180806020018281038252601a8152602001807f6d75737420626520696e2068617276657374656420737461746500000000000081525060200191505060405180910390fd5b610f6733611bf3565b1515610fdb576040517f08c379a00000000000000000000000000000000000000000000000000000000081526004018080602001828103825260128152602001807f68617320746f2062652061206661726d6572000000000000000000000000000081525060200191505060405180910390fd5b600160086000848152602001908152602001600020600b0160006101000a81548160ff0219169083600781111561100e57fe5b02179055507f5afe3b1bf87069693c075da5c22a98d63d1aef98a30dbbe538d0781a98b77ee5826040518082815260200191505060405180910390a15050565b60006110648260036129ae90919063ffffffff16565b9050919050565b61107433612aab565b565b61107f33612b25565b565b600080600060606000806000806000600860008b8152602001908152602001600020600001549850600860008b8152602001908152602001600020600101549750600860008b8152602001908152602001600020600801549650600860008b81526020019081526020016000206009018054600181600116156101000203166002900480601f0160208091040260200160405190810160405280929190818152602001828054600181600116156101000203166002900480156111855780601f1061115a57610100808354040283529160200191611185565b820191906000526020600020905b81548152906001019060200180831161116857829003601f168201915b50505050509550600860008b8152602001908152602001600020600a01549450600860008b8152602001908152602001600020600b0160009054906101000a900460ff1660078111156111d457fe5b9350600860008b8152602001908152602001600020600b0160019054906101000a900473ffffffffffffffffffffffffffffffffffffffff169250600860008b8152602001908152602001600020600c0160009054906101000a900473ffffffffffffffffffffffffffffffffffffffff169150600860008b8152602001908152602001600020600d0160009054906101000a900473ffffffffffffffffffffffffffffffffffffffff1690508888888888888888889850985098509850985098509850985098509193959799909294969850565b600560009054906101000a900473ffffffffffffffffffffffffffffffffffffffff1673ffffffffffffffffffffffffffffffffffffffff163373ffffffffffffffffffffffffffffffffffffffff1614151561136e576040517f08c379a000000000000000000000000000000000000000000000000000000000815260040180806020018281038252600d8152602001807f6d757374206265206f776e65720000000000000000000000000000000000000081525060200191505060405180910390fd5b600073ffffffffffffffffffffffffffffffffffffffff166000809054906101000a900473ffffffffffffffffffffffffffffffffffffffff1673ffffffffffffffffffffffffffffffffffffffff167f5c486528ec3e3f0ea91181cff8116f02bfa350e03b8b6f12e00765adbb5af85c60405160405180910390a360008060006101000a81548173ffffffffffffffffffffffffffffffffffffffff021916908373ffffffffffffffffffffffffffffffffffffffff160217905550565b61143633611987565b15156114aa576040517f08c379a00000000000000000000000000000000000000000000000000000000081526004018080602001828103825260178152602001807f68617320746f2062652061206469737472696275746f7200000000000000000081525060200191505060405180910390fd5b6114b381612b7f565b50565b600080600080606080606080600860008a8152602001908152602001600020600001549750600860008a8152602001908152602001600020600101549650600860008a815260200190815260200160002060020160009054906101000a900473ffffffffffffffffffffffffffffffffffffffff169550600860008a815260200190815260200160002060030160009054906101000a900473ffffffffffffffffffffffffffffffffffffffff169450600860008a81526020019081526020016000206004018054600181600116156101000203166002900480601f0160208091040260200160405190810160405280929190818152602001828054600181600116156101000203166002900480156116105780601f106115e557610100808354040283529160200191611610565b820191906000526020600020905b8154815290600101906020018083116115f357829003601f168201915b50505050509350600860008a81526020019081526020016000206005018054600181600116156101000203166002900480601f0160208091040260200160405190810160405280929190818152602001828054600181600116156101000203166002900480156116c15780601f10611696576101008083540402835291602001916116c1565b820191906000526020600020905b8154815290600101906020018083116116a457829003601f168201915b50505050509250600860008a81526020019081526020016000206006018054600181600116156101000203166002900480601f0160208091040260200160405190810160405280929190818152602001828054600181600116156101000203166002900480156117725780601f1061174757610100808354040283529160200191611772565b820191906000526020600020905b81548152906001019060200180831161175557829003601f168201915b50505050509150600860008a81526020019081526020016000206007018054600181600116156101000203166002900480601f0160208091040260200160405190810160405280929190818152602001828054600181600116156101000203166002900480156118235780601f106117f857610100808354040283529160200191611823565b820191906000526020600020905b81548152906001019060200180831161180657829003601f168201915b50505050509050878787878787878797509750975097509750975097509750919395975091939597565b61185633611bf3565b15156118ca576040517f08c379a00000000000000000000000000000000000000000000000000000000081526004018080602001828103825260128152602001807f68617320746f2062652061206661726d6572000000000000000000000000000081525060200191505060405180910390fd5b6118d381612bd9565b50565b6118df33612c33565b565b60006118f78260046129ae90919063ffffffff16565b9050919050565b6119073361104e565b151561197b576040517f08c379a00000000000000000000000000000000000000000000000000000000081526004018080602001828103825260148152602001807f68617320746f20626520612072657461696c657200000000000000000000000081525060200191505060405180910390fd5b61198481612c8d565b50565b600061199d8260026129ae90919063ffffffff16565b9050919050565b60008060009054906101000a900473ffffffffffffffffffffffffffffffffffffffff1673ffffffffffffffffffffffffffffffffffffffff163373ffffffffffffffffffffffffffffffffffffffff1614905090565b8060056007811115611a0957fe5b60086000838152602001908152602001600020600b0160009054906101000a900460ff166007811115611a3857fe5b141515611aad576040517f08c379a00000000000000000000000000000000000000000000000000000000081526004018080602001828103825260188152602001807f6d75737420626520696e2073686970706564207374617465000000000000000081525060200191505060405180910390fd5b336008600084815260200190815260200160002060020160006101000a81548173ffffffffffffffffffffffffffffffffffffffff021916908373ffffffffffffffffffffffffffffffffffffffff1602179055503360086000848152602001908152602001600020600c0160006101000a81548173ffffffffffffffffffffffffffffffffffffffff021916908373ffffffffffffffffffffffffffffffffffffffff160217905550600660086000848152602001908152602001600020600b0160006101000a81548160ff02191690836007811115611b8a57fe5b02179055507fa8142743f8f70a4c26f3691cf4ed59718381fb2f18070ec52be1f1022d855557826040518082815260200191505060405180910390a15050565b60008060009054906101000a900473ffffffffffffffffffffffffffffffffffffffff16905090565b6000611c098260016129ae90919063ffffffff16565b9050919050565b611c186131a7565b6007548160000181815250508781602001818152505033816040019073ffffffffffffffffffffffffffffffffffffffff16908173ffffffffffffffffffffffffffffffffffffffff168152505086816060019073ffffffffffffffffffffffffffffffffffffffff16908173ffffffffffffffffffffffffffffffffffffffff1681525050858160800181905250848160a00181905250838160c00181905250828160e0018190525060075460065401816101000181815250508181610120018190525060008161016001906007811115611cf057fe5b90816007811115611cfd57fe5b8152505080600860008a8152602001908152602001600020600082015181600001556020820151816001015560408201518160020160006101000a81548173ffffffffffffffffffffffffffffffffffffffff021916908373ffffffffffffffffffffffffffffffffffffffff16021790555060608201518160030160006101000a81548173ffffffffffffffffffffffffffffffffffffffff021916908373ffffffffffffffffffffffffffffffffffffffff1602179055506080820151816004019080519060200190611dd3929190613297565b5060a0820151816005019080519060200190611df0929190613297565b5060c0820151816006019080519060200190611e0d929190613297565b5060e0820151816007019080519060200190611e2a929190613297565b506101008201518160080155610120820151816009019080519060200190611e53929190613297565b5061014082015181600a015561016082015181600b0160006101000a81548160ff02191690836007811115611e8457fe5b021790555061018082015181600b0160016101000a81548173ffffffffffffffffffffffffffffffffffffffff021916908373ffffffffffffffffffffffffffffffffffffffff1602179055506101a082015181600c0160006101000a81548173ffffffffffffffffffffffffffffffffffffffff021916908373ffffffffffffffffffffffffffffffffffffffff1602179055506101c082015181600d0160006101000a81548173ffffffffffffffffffffffffffffffffffffffff021916908373ffffffffffffffffffffffffffffffffffffffff1602179055509050506001600754016007819055507f8e55ccfc9778ff8eba1646d765cf1982537ce0f9257054a17b48aad745250183886040518082815260200191505060405180910390a15050505050505050565b8060066007811115611fbf57fe5b60086000838152602001908152602001600020600b0160009054906101000a900460ff166007811115611fee57fe5b141515612063576040517f08c379a00000000000000000000000000000000000000000000000000000000081526004018080602001828103825260198152602001807f6d75737420626520696e2072656365697665642073746174650000000000000081525060200191505060405180910390fd5b336008600084815260200190815260200160002060020160006101000a81548173ffffffffffffffffffffffffffffffffffffffff021916908373ffffffffffffffffffffffffffffffffffffffff1602179055503360086000848152602001908152602001600020600d0160006101000a81548173ffffffffffffffffffffffffffffffffffffffff021916908373ffffffffffffffffffffffffffffffffffffffff160217905550600760086000848152602001908152602001600020600b0160006101000a81548160ff0219169083600781111561214057fe5b02179055507f653d56639fee6b566a5c804764e9689de38645f0b733df89a36a1b7b42173dd8826040518082815260200191505060405180910390a15050565b61218933612ce7565b565b806003600781111561219957fe5b60086000838152602001908152602001600020600b0160009054906101000a900460ff1660078111156121c857fe5b14151561223d576040517f08c379a00000000000000000000000000000000000000000000000000000000081526004018080602001828103825260188152602001807f6d75737420626520696e20666f7253616c65207374617465000000000000000081525060200191505060405180910390fd5b60086000838152602001908152602001600020600a01548034101515156122cc576040517f08c379a00000000000000000000000000000000000000000000000000000000081526004018080602001828103825260128152602001807f696e73756666696369656e742066756e6473000000000000000000000000000081525060200191505060405180910390fd5b82600080336008600088815260200190815260200160002060020160006101000a81548173ffffffffffffffffffffffffffffffffffffffff021916908373ffffffffffffffffffffffffffffffffffffffff1602179055503360086000888152602001908152602001600020600b0160016101000a81548173ffffffffffffffffffffffffffffffffffffffff021916908373ffffffffffffffffffffffffffffffffffffffff160217905550600460086000888152602001908152602001600020600b0160006101000a81548160ff021916908360078111156123ad57fe5b02179055506008600087815260200190815260200160002060030160009054906101000a900473ffffffffffffffffffffffffffffffffffffffff1673ffffffffffffffffffffffffffffffffffffffff166108fc60086000898152602001908152602001600020600a01549081150290604051600060405180830381858888f19350505050158015612444573d6000803e3d6000fd5b507f92f64ca637d023f354075a4be751b169c1a8a9ccb6d33cdd0cb3520543995727866040518082815260200191505060405180910390a160086000848152602001908152602001600020600a01549150813403905060086000848152602001908152602001600020600d0160009054906101000a900473ffffffffffffffffffffffffffffffffffffffff1673ffffffffffffffffffffffffffffffffffffffff166108fc829081150290604051600060405180830381858888f19350505050158015612516573d6000803e3d6000fd5b50505050505050565b600560009054906101000a900473ffffffffffffffffffffffffffffffffffffffff1673ffffffffffffffffffffffffffffffffffffffff163373ffffffffffffffffffffffffffffffffffffffff161415156125e4576040517f08c379a000000000000000000000000000000000000000000000000000000000815260040180806020018281038252600d8152602001807f6d757374206265206f776e65720000000000000000000000000000000000000081525060200191505060405180910390fd5b6125ed81612d41565b50565b80600160078111156125fe57fe5b60086000838152602001908152602001600020600b0160009054906101000a900460ff16600781111561262d57fe5b1415156126a2576040517f08c379a000000000000000000000000000000000000000000000000000000000815260040180806020018281038252601a8152602001807f6d75737420626520696e2070726f63657373656420737461746500000000000081525060200191505060405180910390fd5b6126ab33611bf3565b151561271f576040517f08c379a00000000000000000000000000000000000000000000000000000000081526004018080602001828103825260128152602001807f68617320746f2062652061206661726d6572000000000000000000000000000081525060200191505060405180910390fd5b600260086000848152602001908152602001600020600b0160006101000a81548160ff0219169083600781111561275257fe5b02179055507f9b3b66e2380b690bae22c73ef1428fb0c91e72fe14a4b6defa13035214187aff826040518082815260200191505060405180910390a15050565b80600460078111156127a057fe5b60086000838152602001908152602001600020600b0160009054906101000a900460ff1660078111156127cf57fe5b141515612844576040517f08c379a00000000000000000000000000000000000000000000000000000000081526004018080602001828103825260158152602001807f6d75737420626520696e20736f6c64207374617465000000000000000000000081525060200191505060405180910390fd5b61284d33611987565b15156128c1576040517f08c379a00000000000000000000000000000000000000000000000000000000081526004018080602001828103825260178152602001807f68617320746f2062652061206469737472696275746f7200000000000000000081525060200191505060405180910390fd5b600560086000848152602001908152602001600020600b0160006101000a81548160ff021916908360078111156128f457fe5b02179055507ff00b9a5725b80c54016f42114f6ed7792d22eecb116011c4afac29c57bef6c95826040518082815260200191505060405180910390a15050565b612948816004612ea490919063ffffffff16565b7f28b26e7a3d20aedbc5f8f2ebf7da671c0491723a2b78f47a097b0e46dee0714281604051808273ffffffffffffffffffffffffffffffffffffffff1673ffffffffffffffffffffffffffffffffffffffff16815260200191505060405180910390a150565b60008073ffffffffffffffffffffffffffffffffffffffff168273ffffffffffffffffffffffffffffffffffffffff1614151515612a54576040517f08c379a00000000000000000000000000000000000000000000000000000000081526004018080602001828103825260158152602001807f616464726573732030206e6f7420616c6c6f776564000000000000000000000081525060200191505060405180910390fd5b8260000160008373ffffffffffffffffffffffffffffffffffffffff1673ffffffffffffffffffffffffffffffffffffffff16815260200190815260200160002060009054906101000a900460ff16905092915050565b612abf81600461302690919063ffffffff16565b7fe3f5ed5f263f1f01764a96edfc7d025f511ec5f7d180e8816908b78bcf74f09881604051808273ffffffffffffffffffffffffffffffffffffffff1673ffffffffffffffffffffffffffffffffffffffff16815260200191505060405180910390a150565b612b3981600261302690919063ffffffff16565b8073ffffffffffffffffffffffffffffffffffffffff167f126174f6cf49c81cdb4a9214c6b8f037bef55b4ec31e4fc776cea2a1c8a88d5960405160405180910390a250565b612b93816002612ea490919063ffffffff16565b8073ffffffffffffffffffffffffffffffffffffffff167fddbf200aa634dc3fb81cfd68583dd1040d1c751d335e1d86b631bde3e977fea860405160405180910390a250565b612bed816001612ea490919063ffffffff16565b8073ffffffffffffffffffffffffffffffffffffffff167f2e0ded4123377a3c2bc9a26f1717655a129e2f20752924d42e730ec89c83dbd060405160405180910390a250565b612c4781600161302690919063ffffffff16565b8073ffffffffffffffffffffffffffffffffffffffff167fa5e0f060af304ab17dd418c7927e3da3ae7868189bf387aee09ab179ccc572f260405160405180910390a250565b612ca1816003612ea490919063ffffffff16565b8073ffffffffffffffffffffffffffffffffffffffff167f71ae26cad02663e3d92efd6ec56031a80d74a20c0ab4183faa8bf262261c9baa60405160405180910390a250565b612cfb81600361302690919063ffffffff16565b8073ffffffffffffffffffffffffffffffffffffffff167fdb7176e79cffef81cb01767dd0447a0b24bb72ca9778d4b245581086b2a7e6db60405160405180910390a250565b600073ffffffffffffffffffffffffffffffffffffffff168173ffffffffffffffffffffffffffffffffffffffff1614151515612de6576040517f08c379a000000000000000000000000000000000000000000000000000000000815260040180806020018281038252601b8152602001807f68617320746f206265206f776e656420746f207472616e73666572000000000081525060200191505060405180910390fd5b8073ffffffffffffffffffffffffffffffffffffffff166000809054906101000a900473ffffffffffffffffffffffffffffffffffffffff1673ffffffffffffffffffffffffffffffffffffffff167f5c486528ec3e3f0ea91181cff8116f02bfa350e03b8b6f12e00765adbb5af85c60405160405180910390a3806000806101000a81548173ffffffffffffffffffffffffffffffffffffffff021916908373ffffffffffffffffffffffffffffffffffffffff16021790555050565b600073ffffffffffffffffffffffffffffffffffffffff168173ffffffffffffffffffffffffffffffffffffffff1614151515612f49576040517f08c379a00000000000000000000000000000000000000000000000000000000081526004018080602001828103825260158152602001807f616464726573732030206e6f7420616c6c6f776564000000000000000000000081525060200191505060405180910390fd5b612f5382826129ae565b151515612fc8576040517f08c379a00000000000000000000000000000000000000000000000000000000081526004018080602001828103825260148152602001807f6d757374206e6f742068617665206120726f6c6500000000000000000000000081525060200191505060405180910390fd5b60018260000160008373ffffffffffffffffffffffffffffffffffffffff1673ffffffffffffffffffffffffffffffffffffffff16815260200190815260200160002060006101000a81548160ff0219169083151502179055505050565b600073ffffffffffffffffffffffffffffffffffffffff168173ffffffffffffffffffffffffffffffffffffffff16141515156130cb576040517f08c379a00000000000000000000000000000000000000000000000000000000081526004018080602001828103825260158152602001807f616464726573732030206e6f7420616c6c6f776564000000000000000000000081525060200191505060405180910390fd5b6130d582826129ae565b1515613149576040517f08c379a00000000000000000000000000000000000000000000000000000000081526004018080602001828103825260108152602001807f6d7573742068617665206120726f6c650000000000000000000000000000000081525060200191505060405180910390fd5b60008260000160008373ffffffffffffffffffffffffffffffffffffffff1673ffffffffffffffffffffffffffffffffffffffff16815260200190815260200160002060006101000a81548160ff0219169083151502179055505050565b6101e0604051908101604052806000815260200160008152602001600073ffffffffffffffffffffffffffffffffffffffff168152602001600073ffffffffffffffffffffffffffffffffffffffff168152602001606081526020016060815260200160608152602001606081526020016000815260200160608152602001600081526020016000600781111561323a57fe5b8152602001600073ffffffffffffffffffffffffffffffffffffffff168152602001600073ffffffffffffffffffffffffffffffffffffffff168152602001600073ffffffffffffffffffffffffffffffffffffffff1681525090565b828054600181600116156101000203166002900490600052602060002090601f016020900481019282601f106132d857805160ff1916838001178555613306565b82800160010185558215613306579182015b828111156133055782518255916020019190600101906132ea565b5b5090506133139190613317565b5090565b61333991905b8082111561333557600081600090555060010161331d565b5090565b905600a165627a7a723058200c5543f99d96dfa1ed0994904f409d710df22eae87ed80391c16519e5dd74f260029",
  "source": "pragma solidity ^0.4.24;\n\nimport \"../coffeecore/Ownable.sol\";\nimport \"../coffeeaccesscontrol/FarmerRole.sol\";\nimport \"../coffeeaccesscontrol/DistributorRole.sol\";\nimport \"../coffeeaccesscontrol/RetailerRole.sol\";\nimport \"../coffeeaccesscontrol/ConsumerRole.sol\";\n\n// Define a contract 'Supplychain'\ncontract SupplyChain is Ownable, FarmerRole, DistributorRole, \n    RetailerRole, ConsumerRole {\n\n    // Define 'owner'\n    address owner;\n\n    // Define a variable called 'upc' for Universal Product Code (UPC)\n    uint  upc;\n\n    // Define a variable called 'sku' for Stock Keeping Unit (SKU)\n    uint  sku;\n\n    // Define a public mapping 'items' that maps the UPC to an Item.\n    mapping (uint => Item) items;\n\n    // Define a public mapping 'itemsHistory' that maps the UPC to an array of TxHash, \n    // that track its journey through the supply chain -- to be sent from DApp.\n    mapping (uint => string[]) itemsHistory;\n    \n    // Define enum 'State' with the following values:\n    enum State \n    { \n        Harvested,  // 0\n        Processed,  // 1\n        Packed,     // 2\n        ForSale,    // 3\n        Sold,       // 4\n        Shipped,    // 5\n        Received,   // 6\n        Purchased   // 7\n    }\n\n    State constant defaultState = State.Harvested;\n\n    // Define a struct 'Item' with the following fields:\n    struct Item {\n        uint    sku;  // Stock Keeping Unit (SKU)\n        uint    upc; // Universal Product Code (UPC), generated by the Farmer, goes on the package, can be verified by the Consumer\n        address ownerID;  // Metamask-Ethereum address of the current owner as the product moves through 8 stages\n        address originFarmerID; // Metamask-Ethereum address of the Farmer\n        string  originFarmName; // Farmer Name\n        string  originFarmInformation;  // Farmer Information\n        string  originFarmLatitude; // Farm Latitude\n        string  originFarmLongitude;  // Farm Longitude\n        uint    productID;  // Product ID potentially a combination of upc + sku\n        string  productNotes; // Product Notes\n        uint    productPrice; // Product Price\n        State   itemState;  // Product State as represented in the enum above\n        address distributorID;  // Metamask-Ethereum address of the Distributor\n        address retailerID; // Metamask-Ethereum address of the Retailer\n        address consumerID; // Metamask-Ethereum address of the Consumer\n    }\n\n    // Define 8 events with the same 8 state values and accept 'upc' as input argument\n    event Harvested(uint upc);\n    event Processed(uint upc);\n    event Packed(uint upc);\n    event ForSale(uint upc);\n    event Sold(uint upc);\n    event Shipped(uint upc);\n    event Received(uint upc);\n    event Purchased(uint upc);\n\n    // Define a modifer that checks to see if msg.sender == owner of the contract\n    modifier onlyOwner() {\n        require(msg.sender == owner, \"must be owner\");\n        _;\n    }\n\n    // Define a modifer that verifies the Caller\n    modifier verifyCaller (address _address) {\n        require(msg.sender == _address, \"invalid caller\"); \n        _;\n    }\n\n    // Define a modifier that checks if the paid amount is sufficient to cover the price\n    modifier paidEnough(uint _price) { \n        require(msg.value >= _price, \"insufficient funds\"); \n        _;\n    }\n    \n    // Define a modifier that checks the price and refunds the remaining balance\n    modifier checkValue(uint _upc) {\n        _;\n        uint _price = items[_upc].productPrice;\n        uint amountToReturn = msg.value - _price;\n        items[_upc].consumerID.transfer(amountToReturn);\n    }\n\n    // Define a modifier that checks if an item.state of a upc is Harvested\n    modifier harvested(uint _upc) {\n        require(items[_upc].itemState == State.Harvested, \"must be in harvested state\");\n        _;\n    }\n\n    // Define a modifier that checks if an item.state of a upc is Processed\n    modifier processed(uint _upc) {\n        require(items[_upc].itemState == State.Processed, \"must be in processed state\");\n        _;\n    }\n    \n    // Define a modifier that checks if an item.state of a upc is Packed\n    modifier packed(uint _upc) {\n        require(items[_upc].itemState == State.Packed, \"must be in packed state\");\n        _;\n    }\n\n    // Define a modifier that checks if an item.state of a upc is ForSale\n    modifier forSale(uint _upc) {\n        require(items[_upc].itemState == State.ForSale, \"must be in forSale state\");\n        _;\n    }\n\n    // Define a modifier that checks if an item.state of a upc is Sold\n    modifier sold(uint _upc) {\n        require(items[_upc].itemState == State.Sold, \"must be in sold state\");\n        _;\n    }\n    \n    // Define a modifier that checks if an item.state of a upc is Shipped\n    modifier shipped(uint _upc) {\n        require(items[_upc].itemState == State.Shipped, \"must be in shipped state\");\n        _;\n    }\n\n    // Define a modifier that checks if an item.state of a upc is Received\n    modifier received(uint _upc) {\n        require(items[_upc].itemState == State.Received, \"must be in received state\");\n        _;\n    }\n\n    // Define a modifier that checks if an item.state of a upc is Purchased\n    modifier purchased(uint _upc) {\n        require(items[_upc].itemState == State.Purchased, \"must be in purchased state\");\n        _;\n    }\n\n    // In the constructor set 'owner' to the address that instantiated the contract\n    // and set 'sku' to 1\n    // and set 'upc' to 1\n    constructor() public payable {\n        owner = msg.sender;\n        sku = 1;\n        upc = 1;\n    }\n\n    // Define a function 'kill' if required\n    function kill() public {\n        if (msg.sender == owner) {\n            selfdestruct(owner);\n        }\n    }\n\n    // Define a function 'harvestItem' that allows a farmer to mark an item 'Harvested'\n    function harvestItem(\n        uint _upc,\n        address _originFarmerID,\n        string _originFarmName,\n        string _originFarmInformation,\n        string  _originFarmLatitude,\n        string  _originFarmLongitude,\n        string  _productNotes) public \n    {\n        // Add the new item as part of Harvest\n        Item memory item;\n        item.sku = sku;\n        item.upc = _upc;\n        item.ownerID = msg.sender;\n        item.originFarmerID = _originFarmerID;\n        item.originFarmName = _originFarmName;\n        item.originFarmInformation = _originFarmInformation;\n        item.originFarmLatitude = _originFarmLatitude;\n        item.originFarmLongitude = _originFarmLongitude;\n        item.productID = upc + sku;\n        item.productNotes = _productNotes;\n        item.itemState = defaultState;\n        items[_upc] = item;    \n        // Increment sku\n        sku = sku + 1;\n        // Emit the appropriate event\n        emit Harvested(_upc);\n    }\n\n    // Define a function 'processtItem' that allows a farmer to mark an item 'Processed'\n    function processItem(uint _upc) public \n    // Call modifier to check if upc has passed previous supply chain stage\n    harvested(_upc)\n    // Call modifier to verify caller of this function\n    onlyFarmer()\n    {\n        // Update the appropriate fields\n        items[_upc].itemState = State.Processed;\n        // Emit the appropriate event\n        emit Processed(_upc);\n    }\n\n    // Define a function 'packItem' that allows a farmer to mark an item 'Packed'\n    function packItem(uint _upc) public \n    // Call modifier to check if upc has passed previous supply chain stage\n    processed(_upc)\n    // Call modifier to verify caller of this function\n    onlyFarmer()\n    {\n        // Update the appropriate fields\n        items[_upc].itemState = State.Packed;        \n        // Emit the appropriate event\n        emit Packed(_upc);\n    }\n\n    // Define a function 'sellItem' that allows a farmer to mark an item 'ForSale'\n    function sellItem(uint _upc, uint _price) public \n    // Call modifier to check if upc has passed previous supply chain stage\n    packed(_upc)\n    // Call modifier to verify caller of this function\n    onlyFarmer()\n    {\n        // Update the appropriate fields\n        items[_upc].itemState = State.ForSale;        \n        items[_upc].productPrice = _price;        \n        // Emit the appropriate event\n        emit ForSale(_upc);\n    }\n\n    // Define a function 'buyItem' that allows the disributor to mark an item 'Sold'\n    // Use the above defined modifiers to check if the item is available for sale, if the buyer has paid enough, \n    // and any excess ether sent is refunded back to the buyer\n    function buyItem(uint _upc) public payable \n        // Call modifier to check if upc has passed previous supply chain stage\n        forSale(_upc)\n        // Call modifer to check if buyer has paid enough\n        paidEnough(items[_upc].productPrice)\n        // Call modifer to send any excess ether back to buyer\n        checkValue(_upc)\n        {\n        // Update the appropriate fields - ownerID, distributorID, itemState\n        items[_upc].ownerID = msg.sender;\n        items[_upc].distributorID = msg.sender;\n        items[_upc].itemState = State.Sold;\n        // Transfer money to farmer\n        items[_upc].originFarmerID.transfer(items[_upc].productPrice);\n        // emit the appropriate event\n        emit Sold(_upc);\n    }\n\n    // Define a function 'shipItem' that allows the distributor to mark an item 'Shipped'\n    // Use the above modifers to check if the item is sold\n    function shipItem(uint _upc) public \n        // Call modifier to check if upc has passed previous supply chain stage\n        sold(_upc)\n        // Call modifier to verify caller of this function\n        onlyDistributor()\n        {\n        // Update the appropriate fields\n        items[_upc].itemState = State.Shipped;\n        // Emit the appropriate event\n        emit Shipped(_upc);\n    }\n\n    // Define a function 'receiveItem' that allows the retailer to mark an item 'Received'\n    // Use the above modifiers to check if the item is shipped\n    function receiveItem(uint _upc) public \n        // Call modifier to check if upc has passed previous supply chain stage\n        shipped(_upc)\n        // Access Control List enforced by calling Smart Contract / DApp\n        {\n        // Update the appropriate fields - ownerID, retailerID, itemState\n        items[_upc].ownerID = msg.sender;\n        items[_upc].retailerID = msg.sender;\n        items[_upc].itemState = State.Received;       \n        // Emit the appropriate event\n        emit Received(_upc);\n    }\n\n    // Define a function 'purchaseItem' that allows the consumer to mark an item 'Purchased'\n    // Use the above modifiers to check if the item is received\n    function purchaseItem(uint _upc) public \n        // Call modifier to check if upc has passed previous supply chain stage\n        received(_upc)\n        // Access Control List enforced by calling Smart Contract / DApp\n        {\n        // Update the appropriate fields - ownerID, consumerID, itemState\n        items[_upc].ownerID = msg.sender;\n        items[_upc].consumerID = msg.sender;\n        items[_upc].itemState = State.Purchased;               \n        // Emit the appropriate event\n        emit Purchased(_upc);\n    }\n\n    // Define a function 'fetchItemBufferOne' that fetches the data\n    function fetchItemBufferOne(uint _upc) public view returns \n    (\n    uint    itemSKU,\n    uint    itemUPC,\n    address ownerID,\n    address originFarmerID,\n    string  originFarmName,\n    string  originFarmInformation,\n    string  originFarmLatitude,\n    string  originFarmLongitude\n    ) \n    {\n    // Assign values to the 8 parameters\n        itemSKU = items[_upc].sku;\n        itemUPC = items[_upc].upc;\n        ownerID = items[_upc].ownerID;\n        originFarmerID = items[_upc].originFarmerID;\n        originFarmName = items[_upc].originFarmName;\n        originFarmInformation = items[_upc].originFarmInformation;\n        originFarmLatitude = items[_upc].originFarmLatitude;\n        originFarmLongitude = items[_upc].originFarmLongitude;\n\n        return \n        (\n        itemSKU,\n        itemUPC,\n        ownerID,\n        originFarmerID,\n        originFarmName,\n        originFarmInformation,\n        originFarmLatitude,\n        originFarmLongitude\n        );\n    }\n\n    // Define a function 'fetchItemBufferTwo' that fetches the data\n    function fetchItemBufferTwo(uint _upc) public view returns \n    (\n    uint    itemSKU,\n    uint    itemUPC,\n    uint    productID,\n    string  productNotes,\n    uint    productPrice,\n    uint    itemState,\n    address distributorID,\n    address retailerID,\n    address consumerID\n    ) \n    {\n        // Assign values to the 9 parameters\n        itemSKU = items[_upc].sku;\n        itemUPC = items[_upc].upc;\n        productID = items[_upc].productID;\n        productNotes = items[_upc].productNotes;\n        productPrice = items[_upc].productPrice;\n        itemState = uint(items[_upc].itemState);\n        distributorID = items[_upc].distributorID;\n        retailerID = items[_upc].retailerID;\n        consumerID = items[_upc].consumerID;\n        \n        return \n        (\n        itemSKU,\n        itemUPC,\n        productID,\n        productNotes,\n        productPrice,\n        itemState,\n        distributorID,\n        retailerID,\n        consumerID\n        );\n    }\n}\n",
  "sourcePath": "/Users/carltonjoseph/cj/cj2019/courses/udacity-blockchain-part2/coffee-supplychain-dapp/project-6/contracts/coffeebase/SupplyChain.sol",
  "compiler": {
    "name": "solc",
    "version": "0.4.25+commit.59dbf8f1.Emscripten.clang"
  },
  "schemaVersion": "2.0.2",
  "updatedAt": "2019-03-02T03:56:57.828Z"
}